{
  "_format": "hh-sol-artifact-1",
  "contractName": "DIYFarm",
  "sourceName": "contracts/DIYFarm.sol",
  "abi": [
    {
      "inputs": [],
      "stateMutability": "nonpayable",
      "type": "constructor"
    },
    {
      "anonymous": false,
      "inputs": [
        {
          "indexed": true,
          "internalType": "address",
          "name": "owner",
          "type": "address"
        },
        {
          "indexed": true,
          "internalType": "address",
          "name": "spender",
          "type": "address"
        },
        {
          "indexed": false,
          "internalType": "uint256",
          "name": "value",
          "type": "uint256"
        }
      ],
      "name": "Approval",
      "type": "event"
    },
    {
      "anonymous": false,
      "inputs": [
        {
          "indexed": false,
          "internalType": "uint256",
          "name": "reward",
          "type": "uint256"
        }
      ],
      "name": "RewardAdded",
      "type": "event"
    },
    {
      "anonymous": false,
      "inputs": [
        {
          "indexed": true,
          "internalType": "address",
          "name": "user",
          "type": "address"
        },
        {
          "indexed": false,
          "internalType": "uint256",
          "name": "reward",
          "type": "uint256"
        }
      ],
      "name": "RewardPaid",
      "type": "event"
    },
    {
      "anonymous": false,
      "inputs": [
        {
          "indexed": true,
          "internalType": "address",
          "name": "user",
          "type": "address"
        },
        {
          "indexed": false,
          "internalType": "uint256",
          "name": "amount",
          "type": "uint256"
        }
      ],
      "name": "Staked",
      "type": "event"
    },
    {
      "anonymous": false,
      "inputs": [
        {
          "indexed": true,
          "internalType": "address",
          "name": "from",
          "type": "address"
        },
        {
          "indexed": true,
          "internalType": "address",
          "name": "to",
          "type": "address"
        },
        {
          "indexed": false,
          "internalType": "uint256",
          "name": "value",
          "type": "uint256"
        }
      ],
      "name": "Transfer",
      "type": "event"
    },
    {
      "anonymous": false,
      "inputs": [
        {
          "indexed": true,
          "internalType": "address",
          "name": "user",
          "type": "address"
        },
        {
          "indexed": false,
          "internalType": "uint256",
          "name": "amount",
          "type": "uint256"
        }
      ],
      "name": "Withdrawn",
      "type": "event"
    },
    {
      "inputs": [
        {
          "internalType": "contract IERC20",
          "name": "_stakingToken",
          "type": "address"
        },
        {
          "internalType": "contract IERC20",
          "name": "_rewardToken",
          "type": "address"
        },
        {
          "internalType": "uint256",
          "name": "_rewardAmount",
          "type": "uint256"
        },
        {
          "internalType": "uint256",
          "name": "_starttime",
          "type": "uint256"
        },
        {
          "internalType": "uint256",
          "name": "_duration",
          "type": "uint256"
        }
      ],
      "name": "__DIYFarm_init",
      "outputs": [],
      "stateMutability": "nonpayable",
      "type": "function"
    },
    {
      "inputs": [
        {
          "internalType": "string",
          "name": "name_",
          "type": "string"
        },
        {
          "internalType": "string",
          "name": "symbol_",
          "type": "string"
        }
      ],
      "name": "__ERC20_init",
      "outputs": [],
      "stateMutability": "nonpayable",
      "type": "function"
    },
    {
      "inputs": [
        {
          "internalType": "address",
          "name": "owner",
          "type": "address"
        },
        {
          "internalType": "address",
          "name": "spender",
          "type": "address"
        }
      ],
      "name": "allowance",
      "outputs": [
        {
          "internalType": "uint256",
          "name": "",
          "type": "uint256"
        }
      ],
      "stateMutability": "view",
      "type": "function"
    },
    {
      "inputs": [
        {
          "internalType": "address",
          "name": "spender",
          "type": "address"
        },
        {
          "internalType": "uint256",
          "name": "amount",
          "type": "uint256"
        }
      ],
      "name": "approve",
      "outputs": [
        {
          "internalType": "bool",
          "name": "",
          "type": "bool"
        }
      ],
      "stateMutability": "nonpayable",
      "type": "function"
    },
    {
      "inputs": [
        {
          "internalType": "address",
          "name": "account",
          "type": "address"
        }
      ],
      "name": "balanceOf",
      "outputs": [
        {
          "internalType": "uint256",
          "name": "",
          "type": "uint256"
        }
      ],
      "stateMutability": "view",
      "type": "function"
    },
    {
      "inputs": [],
      "name": "decimals",
      "outputs": [
        {
          "internalType": "uint8",
          "name": "",
          "type": "uint8"
        }
      ],
      "stateMutability": "view",
      "type": "function"
    },
    {
      "inputs": [
        {
          "internalType": "address",
          "name": "spender",
          "type": "address"
        },
        {
          "internalType": "uint256",
          "name": "subtractedValue",
          "type": "uint256"
        }
      ],
      "name": "decreaseAllowance",
      "outputs": [
        {
          "internalType": "bool",
          "name": "",
          "type": "bool"
        }
      ],
      "stateMutability": "nonpayable",
      "type": "function"
    },
    {
      "inputs": [],
      "name": "duration",
      "outputs": [
        {
          "internalType": "uint256",
          "name": "",
          "type": "uint256"
        }
      ],
      "stateMutability": "view",
      "type": "function"
    },
    {
      "inputs": [
        {
          "internalType": "address",
          "name": "account",
          "type": "address"
        }
      ],
      "name": "earned",
      "outputs": [
        {
          "internalType": "uint256",
          "name": "",
          "type": "uint256"
        }
      ],
      "stateMutability": "view",
      "type": "function"
    },
    {
      "inputs": [
        {
          "internalType": "uint256",
          "name": "amount",
          "type": "uint256"
        }
      ],
      "name": "emergencyWithdraw",
      "outputs": [],
      "stateMutability": "nonpayable",
      "type": "function"
    },
    {
      "inputs": [],
      "name": "exit",
      "outputs": [],
      "stateMutability": "nonpayable",
      "type": "function"
    },
    {
      "inputs": [],
      "name": "getReward",
      "outputs": [],
      "stateMutability": "nonpayable",
      "type": "function"
    },
    {
      "inputs": [
        {
          "internalType": "address",
          "name": "spender",
          "type": "address"
        },
        {
          "internalType": "uint256",
          "name": "addedValue",
          "type": "uint256"
        }
      ],
      "name": "increaseAllowance",
      "outputs": [
        {
          "internalType": "bool",
          "name": "",
          "type": "bool"
        }
      ],
      "stateMutability": "nonpayable",
      "type": "function"
    },
    {
      "inputs": [],
      "name": "lastTimeRewardApplicable",
      "outputs": [
        {
          "internalType": "uint256",
          "name": "",
          "type": "uint256"
        }
      ],
      "stateMutability": "view",
      "type": "function"
    },
    {
      "inputs": [],
      "name": "lastUpdateTime",
      "outputs": [
        {
          "internalType": "uint256",
          "name": "",
          "type": "uint256"
        }
      ],
      "stateMutability": "view",
      "type": "function"
    },
    {
      "inputs": [],
      "name": "name",
      "outputs": [
        {
          "internalType": "string",
          "name": "",
          "type": "string"
        }
      ],
      "stateMutability": "view",
      "type": "function"
    },
    {
      "inputs": [],
      "name": "periodFinish",
      "outputs": [
        {
          "internalType": "uint256",
          "name": "",
          "type": "uint256"
        }
      ],
      "stateMutability": "view",
      "type": "function"
    },
    {
      "inputs": [],
      "name": "rewardPerToken",
      "outputs": [
        {
          "internalType": "uint256",
          "name": "",
          "type": "uint256"
        }
      ],
      "stateMutability": "view",
      "type": "function"
    },
    {
      "inputs": [],
      "name": "rewardPerTokenStored",
      "outputs": [
        {
          "internalType": "uint256",
          "name": "",
          "type": "uint256"
        }
      ],
      "stateMutability": "view",
      "type": "function"
    },
    {
      "inputs": [],
      "name": "rewardRate",
      "outputs": [
        {
          "internalType": "uint256",
          "name": "",
          "type": "uint256"
        }
      ],
      "stateMutability": "view",
      "type": "function"
    },
    {
      "inputs": [],
      "name": "rewardToken",
      "outputs": [
        {
          "internalType": "contract IERC20",
          "name": "",
          "type": "address"
        }
      ],
      "stateMutability": "view",
      "type": "function"
    },
    {
      "inputs": [
        {
          "internalType": "address",
          "name": "",
          "type": "address"
        }
      ],
      "name": "rewards",
      "outputs": [
        {
          "internalType": "uint256",
          "name": "",
          "type": "uint256"
        }
      ],
      "stateMutability": "view",
      "type": "function"
    },
    {
      "inputs": [
        {
          "internalType": "uint256",
          "name": "amount",
          "type": "uint256"
        }
      ],
      "name": "stake",
      "outputs": [],
      "stateMutability": "nonpayable",
      "type": "function"
    },
    {
      "inputs": [],
      "name": "stakingToken",
      "outputs": [
        {
          "internalType": "contract IERC20",
          "name": "",
          "type": "address"
        }
      ],
      "stateMutability": "view",
      "type": "function"
    },
    {
      "inputs": [],
      "name": "starttime",
      "outputs": [
        {
          "internalType": "uint256",
          "name": "",
          "type": "uint256"
        }
      ],
      "stateMutability": "view",
      "type": "function"
    },
    {
      "inputs": [],
      "name": "symbol",
      "outputs": [
        {
          "internalType": "string",
          "name": "",
          "type": "string"
        }
      ],
      "stateMutability": "view",
      "type": "function"
    },
    {
      "inputs": [],
      "name": "totalSupply",
      "outputs": [
        {
          "internalType": "uint256",
          "name": "",
          "type": "uint256"
        }
      ],
      "stateMutability": "view",
      "type": "function"
    },
    {
      "inputs": [
        {
          "internalType": "address",
          "name": "recipient",
          "type": "address"
        },
        {
          "internalType": "uint256",
          "name": "amount",
          "type": "uint256"
        }
      ],
      "name": "transfer",
      "outputs": [
        {
          "internalType": "bool",
          "name": "",
          "type": "bool"
        }
      ],
      "stateMutability": "nonpayable",
      "type": "function"
    },
    {
      "inputs": [
        {
          "internalType": "address",
          "name": "sender",
          "type": "address"
        },
        {
          "internalType": "address",
          "name": "recipient",
          "type": "address"
        },
        {
          "internalType": "uint256",
          "name": "amount",
          "type": "uint256"
        }
      ],
      "name": "transferFrom",
      "outputs": [
        {
          "internalType": "bool",
          "name": "",
          "type": "bool"
        }
      ],
      "stateMutability": "nonpayable",
      "type": "function"
    },
    {
      "inputs": [
        {
          "internalType": "address",
          "name": "",
          "type": "address"
        }
      ],
      "name": "userRewardPerTokenPaid",
      "outputs": [
        {
          "internalType": "uint256",
          "name": "",
          "type": "uint256"
        }
      ],
      "stateMutability": "view",
      "type": "function"
    },
    {
      "inputs": [
        {
          "internalType": "uint256",
          "name": "amount",
          "type": "uint256"
        }
      ],
      "name": "withdraw",
      "outputs": [],
      "stateMutability": "nonpayable",
      "type": "function"
    }
  ],
  "bytecode": "0x60806040523480156200001157600080fd5b506200004260405180602001604052806000815250604051806020016040528060008152506200004860201b60201c565b6200040c565b600060019054906101000a900460ff16806200006f575060008054906101000a900460ff16155b620000b1576040517f08c379a0000000000000000000000000000000000000000000000000000000008152600401620000a89062000325565b60405180910390fd5b60008060019054906101000a900460ff16159050801562000102576001600060016101000a81548160ff02191690831515021790555060016000806101000a81548160ff0219169083151502179055505b6200011483836200013b60201b60201c565b8015620001365760008060016101000a81548160ff0219169083151502179055505b505050565b600060019054906101000a900460ff168062000162575060008054906101000a900460ff16155b620001a4576040517f08c379a00000000000000000000000000000000000000000000000000000000081526004016200019b9062000325565b60405180910390fd5b60008060019054906101000a900460ff161590508015620001f5576001600060016101000a81548160ff02191690831515021790555060016000806101000a81548160ff0219169083151502179055505b82600490805190602001906200020d9291906200024e565b508160059080519060200190620002269291906200024e565b508015620002495760008060016101000a81548160ff0219169083151502179055505b505050565b8280546200025c9062000358565b90600052602060002090601f016020900481019282620002805760008555620002cc565b82601f106200029b57805160ff1916838001178555620002cc565b82800160010185558215620002cc579182015b82811115620002cb578251825591602001919060010190620002ae565b5b509050620002db9190620002df565b5090565b5b80821115620002fa576000816000905550600101620002e0565b5090565b60006200030d602e8362000347565b91506200031a82620003bd565b604082019050919050565b600060208201905081810360008301526200034081620002fe565b9050919050565b600082825260208201905092915050565b600060028204905060018216806200037157607f821691505b602082108114156200038857620003876200038e565b5b50919050565b7f4e487b7100000000000000000000000000000000000000000000000000000000600052602260045260246000fd5b7f496e697469616c697a61626c653a20636f6e747261637420697320616c72656160008201527f647920696e697469616c697a6564000000000000000000000000000000000000602082015250565b613bf2806200041c6000396000f3fe608060405234801561001057600080fd5b50600436106101e45760003560e01c80637b0a47ee1161010f578063c8f33c91116100a2578063df136d6511610071578063df136d65146105a9578063e9fad8ee146105c7578063ebe2b12b146105d1578063f7c618c1146105ef576101e4565b8063c8f33c9114610521578063cd3daf9d1461053f578063d0cc0bff1461055d578063dd62ed3e14610579576101e4565b806395d89b41116100de57806395d89b4114610487578063a457c2d7146104a5578063a694fc3a146104d5578063a9059cbb146104f1576101e4565b80637b0a47ee146103fd57806380faa57d1461041b5780638b876347146104395780638da5889714610469576101e4565b80632e1a7d4d116101875780635312ea8e116101565780635312ea8e14610377578063678bd7181461039357806370a08231146103af57806372f702f3146103df576101e4565b80632e1a7d4d14610303578063313ce5671461031f578063395093511461033d5780633d18b9121461036d576101e4565b8063095ea7b3116101c3578063095ea7b3146102675780630fb5a6b41461029757806318160ddd146102b557806323b872dd146102d3576101e4565b80628cc262146101e957806306fdde03146102195780630700037d14610237575b600080fd5b61020360048036038101906101fe9190612960565b61060d565b60405161021091906132b2565b60405180910390f35b6102216106f4565b60405161022e9190613070565b60405180910390f35b610251600480360381019061024c9190612960565b610786565b60405161025e91906132b2565b60405180910390f35b610281600480360381019061027c9190612a14565b61079e565b60405161028e919061303a565b60405180910390f35b61029f6107bc565b6040516102ac91906132b2565b60405180910390f35b6102bd6107c2565b6040516102ca91906132b2565b60405180910390f35b6102ed60048036038101906102e891906129c5565b6107cc565b6040516102fa919061303a565b60405180910390f35b61031d60048036038101906103189190612b9d565b6108cd565b005b610327610ae2565b60405161033491906132cd565b60405180910390f35b61035760048036038101906103529190612a14565b610aeb565b604051610364919061303a565b60405180910390f35b610375610b97565b005b610391600480360381019061038c9190612b9d565b610e37565b005b6103ad60048036038101906103a89190612b31565b610f67565b005b6103c960048036038101906103c49190612960565b61104c565b6040516103d691906132b2565b60405180910390f35b6103e7611095565b6040516103f49190613055565b60405180910390f35b6104056110bb565b60405161041291906132b2565b60405180910390f35b6104236110c1565b60405161043091906132b2565b60405180910390f35b610453600480360381019061044e9190612960565b6110db565b60405161046091906132b2565b60405180910390f35b6104716110f3565b60405161047e91906132b2565b60405180910390f35b61048f6110f9565b60405161049c9190613070565b60405180910390f35b6104bf60048036038101906104ba9190612a14565b61118b565b6040516104cc919061303a565b60405180910390f35b6104ef60048036038101906104ea9190612b9d565b61127f565b005b61050b60048036038101906105069190612a14565b611496565b604051610518919061303a565b60405180910390f35b6105296114b4565b60405161053691906132b2565b60405180910390f35b6105476114ba565b60405161055491906132b2565b60405180910390f35b61057760048036038101906105729190612a79565b611552565b005b610593600480360381019061058e9190612989565b611818565b6040516105a091906132b2565b60405180910390f35b6105b161189f565b6040516105be91906132b2565b60405180910390f35b6105cf6118a5565b005b6105d96118c0565b6040516105e691906132b2565b60405180910390f35b6105f76118c6565b6040516106049190613055565b60405180910390f35b60006106ed603c60008473ffffffffffffffffffffffffffffffffffffffff1673ffffffffffffffffffffffffffffffffffffffff168152602001908152602001600020546106df670de0b6b3a76400006106d16106ba603b60008973ffffffffffffffffffffffffffffffffffffffff1673ffffffffffffffffffffffffffffffffffffffff168152602001908152602001600020546106ac6114ba565b6118ec90919063ffffffff16565b6106c38861104c565b61190290919063ffffffff16565b61191890919063ffffffff16565b61192e90919063ffffffff16565b9050919050565b6060600480546107039061355d565b80601f016020809104026020016040519081016040528092919081815260200182805461072f9061355d565b801561077c5780601f106107515761010080835404028352916020019161077c565b820191906000526020600020905b81548152906001019060200180831161075f57829003601f168201915b5050505050905090565b603c6020528060005260406000206000915090505481565b60006107b26107ab611944565b848461194c565b6001905092915050565b60355481565b6000600354905090565b60006107d9848484611b17565b6000600260008673ffffffffffffffffffffffffffffffffffffffff1673ffffffffffffffffffffffffffffffffffffffff1681526020019081526020016000206000610824611944565b73ffffffffffffffffffffffffffffffffffffffff1673ffffffffffffffffffffffffffffffffffffffff168152602001908152602001600020549050828110156108a4576040517f08c379a000000000000000000000000000000000000000000000000000000000815260040161089b90613192565b60405180910390fd5b6108c1856108b0611944565b85846108bc919061345c565b61194c565b60019150509392505050565b336108d66114ba565b603a819055506108e46110c1565b603981905550600073ffffffffffffffffffffffffffffffffffffffff168173ffffffffffffffffffffffffffffffffffffffff16146109b1576109278161060d565b603c60008373ffffffffffffffffffffffffffffffffffffffff1673ffffffffffffffffffffffffffffffffffffffff16815260200190815260200160002081905550603a54603b60008373ffffffffffffffffffffffffffffffffffffffff1673ffffffffffffffffffffffffffffffffffffffff168152602001908152602001600020819055505b6036544210156109f6576040517f08c379a00000000000000000000000000000000000000000000000000000000081526004016109ed90613252565b60405180910390fd5b60008211610a39576040517f08c379a0000000000000000000000000000000000000000000000000000000008152600401610a3090613172565b60405180910390fd5b610a433383611d99565b610a903383603360009054906101000a900473ffffffffffffffffffffffffffffffffffffffff1673ffffffffffffffffffffffffffffffffffffffff16611f6f9092919063ffffffff16565b3373ffffffffffffffffffffffffffffffffffffffff167f7084f5476618d8e60b11ef0d7d3f06914655adb8793e28ff7f018d4c76d505d583604051610ad691906132b2565b60405180910390a25050565b60006012905090565b6000610b8d610af8611944565b848460026000610b06611944565b73ffffffffffffffffffffffffffffffffffffffff1673ffffffffffffffffffffffffffffffffffffffff16815260200190815260200160002060008873ffffffffffffffffffffffffffffffffffffffff1673ffffffffffffffffffffffffffffffffffffffff16815260200190815260200160002054610b88919061337b565b61194c565b6001905092915050565b33610ba06114ba565b603a81905550610bae6110c1565b603981905550600073ffffffffffffffffffffffffffffffffffffffff168173ffffffffffffffffffffffffffffffffffffffff1614610c7b57610bf18161060d565b603c60008373ffffffffffffffffffffffffffffffffffffffff1673ffffffffffffffffffffffffffffffffffffffff16815260200190815260200160002081905550603a54603b60008373ffffffffffffffffffffffffffffffffffffffff1673ffffffffffffffffffffffffffffffffffffffff168152602001908152602001600020819055505b6000610c863361060d565b90506000811115610e33576000603460009054906101000a900473ffffffffffffffffffffffffffffffffffffffff1673ffffffffffffffffffffffffffffffffffffffff166370a08231306040518263ffffffff1660e01b8152600401610cee9190612fbf565b60206040518083038186803b158015610d0657600080fd5b505afa158015610d1a573d6000803e3d6000fd5b505050506040513d601f19601f82011682018060405250810190610d3e9190612bc6565b9050808211610d4d5781610d4f565b805b91506000603c60003373ffffffffffffffffffffffffffffffffffffffff1673ffffffffffffffffffffffffffffffffffffffff16815260200190815260200160002081905550610de33383603460009054906101000a900473ffffffffffffffffffffffffffffffffffffffff1673ffffffffffffffffffffffffffffffffffffffff16611f6f9092919063ffffffff16565b3373ffffffffffffffffffffffffffffffffffffffff167fe2403640ba68fed3a2f88b7557551d1993f84b99bb10ff833f0cf8db0c5e048683604051610e2991906132b2565b60405180910390a2505b5050565b603654421015610e7c576040517f08c379a0000000000000000000000000000000000000000000000000000000008152600401610e7390613252565b60405180910390fd5b60008111610ebf576040517f08c379a0000000000000000000000000000000000000000000000000000000008152600401610eb690613172565b60405180910390fd5b610ec93382611d99565b610f163382603360009054906101000a900473ffffffffffffffffffffffffffffffffffffffff1673ffffffffffffffffffffffffffffffffffffffff16611f6f9092919063ffffffff16565b3373ffffffffffffffffffffffffffffffffffffffff167f7084f5476618d8e60b11ef0d7d3f06914655adb8793e28ff7f018d4c76d505d582604051610f5c91906132b2565b60405180910390a250565b600060019054906101000a900460ff1680610f8d575060008054906101000a900460ff16155b610fcc576040517f08c379a0000000000000000000000000000000000000000000000000000000008152600401610fc390613152565b60405180910390fd5b60008060019054906101000a900460ff16159050801561101c576001600060016101000a81548160ff02191690831515021790555060016000806101000a81548160ff0219169083151502179055505b6110268383611ff5565b80156110475760008060016101000a81548160ff0219169083151502179055505b505050565b6000600160008373ffffffffffffffffffffffffffffffffffffffff1673ffffffffffffffffffffffffffffffffffffffff168152602001908152602001600020549050919050565b603360009054906101000a900473ffffffffffffffffffffffffffffffffffffffff1681565b60385481565b600060375442106110d4576037546110d6565b425b905090565b603b6020528060005260406000206000915090505481565b60365481565b6060600580546111089061355d565b80601f01602080910402602001604051908101604052809291908181526020018280546111349061355d565b80156111815780601f1061115657610100808354040283529160200191611181565b820191906000526020600020905b81548152906001019060200180831161116457829003601f168201915b5050505050905090565b6000806002600061119a611944565b73ffffffffffffffffffffffffffffffffffffffff1673ffffffffffffffffffffffffffffffffffffffff16815260200190815260200160002060008573ffffffffffffffffffffffffffffffffffffffff1673ffffffffffffffffffffffffffffffffffffffff16815260200190815260200160002054905082811015611257576040517f08c379a000000000000000000000000000000000000000000000000000000000815260040161124e90613272565b60405180910390fd5b611274611262611944565b85858461126f919061345c565b61194c565b600191505092915050565b336112886114ba565b603a819055506112966110c1565b603981905550600073ffffffffffffffffffffffffffffffffffffffff168173ffffffffffffffffffffffffffffffffffffffff1614611363576112d98161060d565b603c60008373ffffffffffffffffffffffffffffffffffffffff1673ffffffffffffffffffffffffffffffffffffffff16815260200190815260200160002081905550603a54603b60008373ffffffffffffffffffffffffffffffffffffffff1673ffffffffffffffffffffffffffffffffffffffff168152602001908152602001600020819055505b6036544210156113a8576040517f08c379a000000000000000000000000000000000000000000000000000000000815260040161139f90613252565b60405180910390fd5b600082116113eb576040517f08c379a00000000000000000000000000000000000000000000000000000000081526004016113e2906130f2565b60405180910390fd5b61143a333084603360009054906101000a900473ffffffffffffffffffffffffffffffffffffffff1673ffffffffffffffffffffffffffffffffffffffff166120fe909392919063ffffffff16565b6114443383612187565b3373ffffffffffffffffffffffffffffffffffffffff167f9e71bc8eea02a63969f509818f2dafb9254532904319f9dbda79b67bd34a5f3d8360405161148a91906132b2565b60405180910390a25050565b60006114aa6114a3611944565b8484611b17565b6001905092915050565b60395481565b6000806114c56107c2565b14156114d557603a54905061154f565b61154c61153b6114e36107c2565b61152d670de0b6b3a764000061151f6038546115116039546115036110c1565b6118ec90919063ffffffff16565b61190290919063ffffffff16565b61190290919063ffffffff16565b61191890919063ffffffff16565b603a5461192e90919063ffffffff16565b90505b90565b600060019054906101000a900460ff1680611578575060008054906101000a900460ff16155b6115b7576040517f08c379a00000000000000000000000000000000000000000000000000000000081526004016115ae90613152565b60405180910390fd5b60008060019054906101000a900460ff161590508015611607576001600060016101000a81548160ff02191690831515021790555060016000806101000a81548160ff0219169083151502179055505b4283101561161457600080fd5b6000821161162157600080fd5b60008673ffffffffffffffffffffffffffffffffffffffff166395d89b416040518163ffffffff1660e01b815260040160006040518083038186803b15801561166957600080fd5b505afa15801561167d573d6000803e3d6000fd5b505050506040513d6000823e3d601f19601f820116820180604052508101906116a69190612af0565b8673ffffffffffffffffffffffffffffffffffffffff166395d89b416040518163ffffffff1660e01b815260040160006040518083038186803b1580156116ec57600080fd5b505afa158015611700573d6000803e3d6000fd5b505050506040513d6000823e3d601f19601f820116820180604052508101906117299190612af0565b60405160200161173a929190612f85565b60405160208183030381529060405290506117558182610f67565b86603360006101000a81548173ffffffffffffffffffffffffffffffffffffffff021916908373ffffffffffffffffffffffffffffffffffffffff16021790555085603460006101000a81548173ffffffffffffffffffffffffffffffffffffffff021916908373ffffffffffffffffffffffffffffffffffffffff16021790555083603681905550826035819055506117ee856122dc565b5080156118105760008060016101000a81548160ff0219169083151502179055505b505050505050565b6000600260008473ffffffffffffffffffffffffffffffffffffffff1673ffffffffffffffffffffffffffffffffffffffff16815260200190815260200160002060008373ffffffffffffffffffffffffffffffffffffffff1673ffffffffffffffffffffffffffffffffffffffff16815260200190815260200160002054905092915050565b603a5481565b6118b66118b13361104c565b6108cd565b6118be610b97565b565b60375481565b603460009054906101000a900473ffffffffffffffffffffffffffffffffffffffff1681565b600081836118fa919061345c565b905092915050565b600081836119109190613402565b905092915050565b6000818361192691906133d1565b905092915050565b6000818361193c919061337b565b905092915050565b600033905090565b600073ffffffffffffffffffffffffffffffffffffffff168373ffffffffffffffffffffffffffffffffffffffff1614156119bc576040517f08c379a00000000000000000000000000000000000000000000000000000000081526004016119b3906131f2565b60405180910390fd5b600073ffffffffffffffffffffffffffffffffffffffff168273ffffffffffffffffffffffffffffffffffffffff161415611a2c576040517f08c379a0000000000000000000000000000000000000000000000000000000008152600401611a23906130d2565b60405180910390fd5b80600260008573ffffffffffffffffffffffffffffffffffffffff1673ffffffffffffffffffffffffffffffffffffffff16815260200190815260200160002060008473ffffffffffffffffffffffffffffffffffffffff1673ffffffffffffffffffffffffffffffffffffffff168152602001908152602001600020819055508173ffffffffffffffffffffffffffffffffffffffff168373ffffffffffffffffffffffffffffffffffffffff167f8c5be1e5ebec7d5bd14f71427d1e84f3dd0314c0f7b2291e5b200ac8c7c3b92583604051611b0a91906132b2565b60405180910390a3505050565b600073ffffffffffffffffffffffffffffffffffffffff168373ffffffffffffffffffffffffffffffffffffffff161415611b87576040517f08c379a0000000000000000000000000000000000000000000000000000000008152600401611b7e906131d2565b60405180910390fd5b600073ffffffffffffffffffffffffffffffffffffffff168273ffffffffffffffffffffffffffffffffffffffff161415611bf7576040517f08c379a0000000000000000000000000000000000000000000000000000000008152600401611bee90613092565b60405180910390fd5b611c02838383612512565b6000600160008573ffffffffffffffffffffffffffffffffffffffff1673ffffffffffffffffffffffffffffffffffffffff16815260200190815260200160002054905081811015611c89576040517f08c379a0000000000000000000000000000000000000000000000000000000008152600401611c8090613112565b60405180910390fd5b8181611c95919061345c565b600160008673ffffffffffffffffffffffffffffffffffffffff1673ffffffffffffffffffffffffffffffffffffffff1681526020019081526020016000208190555081600160008573ffffffffffffffffffffffffffffffffffffffff1673ffffffffffffffffffffffffffffffffffffffff1681526020019081526020016000206000828254611d27919061337b565b925050819055508273ffffffffffffffffffffffffffffffffffffffff168473ffffffffffffffffffffffffffffffffffffffff167fddf252ad1be2c89b69c2b068fc378daa952ba7f163c4a11628f55a4df523b3ef84604051611d8b91906132b2565b60405180910390a350505050565b600073ffffffffffffffffffffffffffffffffffffffff168273ffffffffffffffffffffffffffffffffffffffff161415611e09576040517f08c379a0000000000000000000000000000000000000000000000000000000008152600401611e00906131b2565b60405180910390fd5b611e1582600083612512565b6000600160008473ffffffffffffffffffffffffffffffffffffffff1673ffffffffffffffffffffffffffffffffffffffff16815260200190815260200160002054905081811015611e9c576040517f08c379a0000000000000000000000000000000000000000000000000000000008152600401611e93906130b2565b60405180910390fd5b8181611ea8919061345c565b600160008573ffffffffffffffffffffffffffffffffffffffff1673ffffffffffffffffffffffffffffffffffffffff168152602001908152602001600020819055508160036000828254611efd919061345c565b92505081905550600073ffffffffffffffffffffffffffffffffffffffff168373ffffffffffffffffffffffffffffffffffffffff167fddf252ad1be2c89b69c2b068fc378daa952ba7f163c4a11628f55a4df523b3ef84604051611f6291906132b2565b60405180910390a3505050565b611ff08363a9059cbb60e01b8484604051602401611f8e929190613011565b604051602081830303815290604052907bffffffffffffffffffffffffffffffffffffffffffffffffffffffff19166020820180517bffffffffffffffffffffffffffffffffffffffffffffffffffffffff8381831617835250505050612517565b505050565b600060019054906101000a900460ff168061201b575060008054906101000a900460ff16155b61205a576040517f08c379a000000000000000000000000000000000000000000000000000000000815260040161205190613152565b60405180910390fd5b60008060019054906101000a900460ff1615905080156120aa576001600060016101000a81548160ff02191690831515021790555060016000806101000a81548160ff0219169083151502179055505b82600490805190602001906120c0929190612784565b5081600590805190602001906120d7929190612784565b5080156120f95760008060016101000a81548160ff0219169083151502179055505b505050565b612181846323b872dd60e01b85858560405160240161211f93929190612fda565b604051602081830303815290604052907bffffffffffffffffffffffffffffffffffffffffffffffffffffffff19166020820180517bffffffffffffffffffffffffffffffffffffffffffffffffffffffff8381831617835250505050612517565b50505050565b600073ffffffffffffffffffffffffffffffffffffffff168273ffffffffffffffffffffffffffffffffffffffff1614156121f7576040517f08c379a00000000000000000000000000000000000000000000000000000000081526004016121ee90613292565b60405180910390fd5b61220360008383612512565b8060036000828254612215919061337b565b9250508190555080600160008473ffffffffffffffffffffffffffffffffffffffff1673ffffffffffffffffffffffffffffffffffffffff168152602001908152602001600020600082825461226b919061337b565b925050819055508173ffffffffffffffffffffffffffffffffffffffff16600073ffffffffffffffffffffffffffffffffffffffff167fddf252ad1be2c89b69c2b068fc378daa952ba7f163c4a11628f55a4df523b3ef836040516122d091906132b2565b60405180910390a35050565b600060019054906101000a900460ff1680612302575060008054906101000a900460ff16155b612341576040517f08c379a000000000000000000000000000000000000000000000000000000000815260040161233890613152565b60405180910390fd5b60008060019054906101000a900460ff161590508015612391576001600060016101000a81548160ff02191690831515021790555060016000806101000a81548160ff0219169083151502179055505b600061239b6114ba565b603a819055506123a96110c1565b603981905550600073ffffffffffffffffffffffffffffffffffffffff168173ffffffffffffffffffffffffffffffffffffffff1614612476576123ec8161060d565b603c60008373ffffffffffffffffffffffffffffffffffffffff1673ffffffffffffffffffffffffffffffffffffffff16815260200190815260200160002081905550603a54603b60008373ffffffffffffffffffffffffffffffffffffffff1673ffffffffffffffffffffffffffffffffffffffff168152602001908152602001600020819055505b61248b6035548461191890919063ffffffff16565b603881905550426039819055506124af60355460365461192e90919063ffffffff16565b6037819055507fde88a922e0d3b88b24e9623efeb464919c6bf9f66857a65e2bfcf2ce87a9433d836040516124e491906132b2565b60405180910390a150801561250e5760008060016101000a81548160ff0219169083151502179055505b5050565b505050565b6000612579826040518060400160405280602081526020017f5361666545524332303a206c6f772d6c6576656c2063616c6c206661696c65648152508573ffffffffffffffffffffffffffffffffffffffff166125de9092919063ffffffff16565b90506000815111156125d957808060200190518101906125999190612a50565b6125d8576040517f08c379a00000000000000000000000000000000000000000000000000000000081526004016125cf90613232565b60405180910390fd5b5b505050565b60606125ed84846000856125f6565b90509392505050565b60608247101561263b576040517f08c379a000000000000000000000000000000000000000000000000000000000815260040161263290613132565b60405180910390fd5b6126448561270a565b612683576040517f08c379a000000000000000000000000000000000000000000000000000000000815260040161267a90613212565b60405180910390fd5b6000808673ffffffffffffffffffffffffffffffffffffffff1685876040516126ac9190612f6e565b60006040518083038185875af1925050503d80600081146126e9576040519150601f19603f3d011682016040523d82523d6000602084013e6126ee565b606091505b50915091506126fe82828661271d565b92505050949350505050565b600080823b905060008111915050919050565b6060831561272d5782905061277d565b6000835111156127405782518084602001fd5b816040517f08c379a00000000000000000000000000000000000000000000000000000000081526004016127749190613070565b60405180910390fd5b9392505050565b8280546127909061355d565b90600052602060002090601f0160209004810192826127b257600085556127f9565b82601f106127cb57805160ff19168380011785556127f9565b828001600101855582156127f9579182015b828111156127f85782518255916020019190600101906127dd565b5b509050612806919061280a565b5090565b5b8082111561282357600081600090555060010161280b565b5090565b600061283a6128358461330d565b6132e8565b90508281526020810184848401111561285257600080fd5b61285d84828561351b565b509392505050565b60006128786128738461330d565b6132e8565b90508281526020810184848401111561289057600080fd5b61289b84828561352a565b509392505050565b6000813590506128b281613b60565b92915050565b6000815190506128c781613b77565b92915050565b6000813590506128dc81613b8e565b92915050565b600082601f8301126128f357600080fd5b8135612903848260208601612827565b91505092915050565b600082601f83011261291d57600080fd5b815161292d848260208601612865565b91505092915050565b60008135905061294581613ba5565b92915050565b60008151905061295a81613ba5565b92915050565b60006020828403121561297257600080fd5b6000612980848285016128a3565b91505092915050565b6000806040838503121561299c57600080fd5b60006129aa858286016128a3565b92505060206129bb858286016128a3565b9150509250929050565b6000806000606084860312156129da57600080fd5b60006129e8868287016128a3565b93505060206129f9868287016128a3565b9250506040612a0a86828701612936565b9150509250925092565b60008060408385031215612a2757600080fd5b6000612a35858286016128a3565b9250506020612a4685828601612936565b9150509250929050565b600060208284031215612a6257600080fd5b6000612a70848285016128b8565b91505092915050565b600080600080600060a08688031215612a9157600080fd5b6000612a9f888289016128cd565b9550506020612ab0888289016128cd565b9450506040612ac188828901612936565b9350506060612ad288828901612936565b9250506080612ae388828901612936565b9150509295509295909350565b600060208284031215612b0257600080fd5b600082015167ffffffffffffffff811115612b1c57600080fd5b612b288482850161290c565b91505092915050565b60008060408385031215612b4457600080fd5b600083013567ffffffffffffffff811115612b5e57600080fd5b612b6a858286016128e2565b925050602083013567ffffffffffffffff811115612b8757600080fd5b612b93858286016128e2565b9150509250929050565b600060208284031215612baf57600080fd5b6000612bbd84828501612936565b91505092915050565b600060208284031215612bd857600080fd5b6000612be68482850161294b565b91505092915050565b612bf881613490565b82525050565b612c07816134a2565b82525050565b6000612c188261333e565b612c228185613354565b9350612c3281856020860161352a565b80840191505092915050565b612c47816134f7565b82525050565b6000612c5882613349565b612c62818561335f565b9350612c7281856020860161352a565b612c7b8161367c565b840191505092915050565b6000612c9182613349565b612c9b8185613370565b9350612cab81856020860161352a565b80840191505092915050565b6000612cc460238361335f565b9150612ccf8261368d565b604082019050919050565b6000612ce760228361335f565b9150612cf2826136dc565b604082019050919050565b6000612d0a60228361335f565b9150612d158261372b565b604082019050919050565b6000612d2d600e8361335f565b9150612d388261377a565b602082019050919050565b6000612d5060268361335f565b9150612d5b826137a3565b604082019050919050565b6000612d7360268361335f565b9150612d7e826137f2565b604082019050919050565b6000612d96602e8361335f565b9150612da182613841565b604082019050919050565b6000612db960118361335f565b9150612dc482613890565b602082019050919050565b6000612ddc60288361335f565b9150612de7826138b9565b604082019050919050565b6000612dff60218361335f565b9150612e0a82613908565b604082019050919050565b6000612e2260258361335f565b9150612e2d82613957565b604082019050919050565b6000612e4560248361335f565b9150612e50826139a6565b604082019050919050565b6000612e68601d8361335f565b9150612e73826139f5565b602082019050919050565b6000612e8b600383613370565b9150612e9682613a1e565b600382019050919050565b6000612eae600183613370565b9150612eb982613a47565b600182019050919050565b6000612ed1602a8361335f565b9150612edc82613a70565b604082019050919050565b6000612ef4600b8361335f565b9150612eff82613abf565b602082019050919050565b6000612f1760258361335f565b9150612f2282613ae8565b604082019050919050565b6000612f3a601f8361335f565b9150612f4582613b37565b602082019050919050565b612f59816134e0565b82525050565b612f68816134ea565b82525050565b6000612f7a8284612c0d565b915081905092915050565b6000612f9082612e7e565b9150612f9c8285612c86565b9150612fa782612ea1565b9150612fb38284612c86565b91508190509392505050565b6000602082019050612fd46000830184612bef565b92915050565b6000606082019050612fef6000830186612bef565b612ffc6020830185612bef565b6130096040830184612f50565b949350505050565b60006040820190506130266000830185612bef565b6130336020830184612f50565b9392505050565b600060208201905061304f6000830184612bfe565b92915050565b600060208201905061306a6000830184612c3e565b92915050565b6000602082019050818103600083015261308a8184612c4d565b905092915050565b600060208201905081810360008301526130ab81612cb7565b9050919050565b600060208201905081810360008301526130cb81612cda565b9050919050565b600060208201905081810360008301526130eb81612cfd565b9050919050565b6000602082019050818103600083015261310b81612d20565b9050919050565b6000602082019050818103600083015261312b81612d43565b9050919050565b6000602082019050818103600083015261314b81612d66565b9050919050565b6000602082019050818103600083015261316b81612d89565b9050919050565b6000602082019050818103600083015261318b81612dac565b9050919050565b600060208201905081810360008301526131ab81612dcf565b9050919050565b600060208201905081810360008301526131cb81612df2565b9050919050565b600060208201905081810360008301526131eb81612e15565b9050919050565b6000602082019050818103600083015261320b81612e38565b9050919050565b6000602082019050818103600083015261322b81612e5b565b9050919050565b6000602082019050818103600083015261324b81612ec4565b9050919050565b6000602082019050818103600083015261326b81612ee7565b9050919050565b6000602082019050818103600083015261328b81612f0a565b9050919050565b600060208201905081810360008301526132ab81612f2d565b9050919050565b60006020820190506132c76000830184612f50565b92915050565b60006020820190506132e26000830184612f5f565b92915050565b60006132f2613303565b90506132fe828261358f565b919050565b6000604051905090565b600067ffffffffffffffff8211156133285761332761364d565b5b6133318261367c565b9050602081019050919050565b600081519050919050565b600081519050919050565b600081905092915050565b600082825260208201905092915050565b600081905092915050565b6000613386826134e0565b9150613391836134e0565b9250827fffffffffffffffffffffffffffffffffffffffffffffffffffffffffffffffff038211156133c6576133c56135c0565b5b828201905092915050565b60006133dc826134e0565b91506133e7836134e0565b9250826133f7576133f66135ef565b5b828204905092915050565b600061340d826134e0565b9150613418836134e0565b9250817fffffffffffffffffffffffffffffffffffffffffffffffffffffffffffffffff0483118215151615613451576134506135c0565b5b828202905092915050565b6000613467826134e0565b9150613472836134e0565b925082821015613485576134846135c0565b5b828203905092915050565b600061349b826134c0565b9050919050565b60008115159050919050565b60006134b982613490565b9050919050565b600073ffffffffffffffffffffffffffffffffffffffff82169050919050565b6000819050919050565b600060ff82169050919050565b600061350282613509565b9050919050565b6000613514826134c0565b9050919050565b82818337600083830152505050565b60005b8381101561354857808201518184015260208101905061352d565b83811115613557576000848401525b50505050565b6000600282049050600182168061357557607f821691505b602082108114156135895761358861361e565b5b50919050565b6135988261367c565b810181811067ffffffffffffffff821117156135b7576135b661364d565b5b80604052505050565b7f4e487b7100000000000000000000000000000000000000000000000000000000600052601160045260246000fd5b7f4e487b7100000000000000000000000000000000000000000000000000000000600052601260045260246000fd5b7f4e487b7100000000000000000000000000000000000000000000000000000000600052602260045260246000fd5b7f4e487b7100000000000000000000000000000000000000000000000000000000600052604160045260246000fd5b6000601f19601f8301169050919050565b7f45524332303a207472616e7366657220746f20746865207a65726f206164647260008201527f6573730000000000000000000000000000000000000000000000000000000000602082015250565b7f45524332303a206275726e20616d6f756e7420657863656564732062616c616e60008201527f6365000000000000000000000000000000000000000000000000000000000000602082015250565b7f45524332303a20617070726f766520746f20746865207a65726f20616464726560008201527f7373000000000000000000000000000000000000000000000000000000000000602082015250565b7f43616e6e6f74207374616b652030000000000000000000000000000000000000600082015250565b7f45524332303a207472616e7366657220616d6f756e742065786365656473206260008201527f616c616e63650000000000000000000000000000000000000000000000000000602082015250565b7f416464726573733a20696e73756666696369656e742062616c616e636520666f60008201527f722063616c6c0000000000000000000000000000000000000000000000000000602082015250565b7f496e697469616c697a61626c653a20636f6e747261637420697320616c72656160008201527f647920696e697469616c697a6564000000000000000000000000000000000000602082015250565b7f43616e6e6f742077697468647261772030000000000000000000000000000000600082015250565b7f45524332303a207472616e7366657220616d6f756e742065786365656473206160008201527f6c6c6f77616e6365000000000000000000000000000000000000000000000000602082015250565b7f45524332303a206275726e2066726f6d20746865207a65726f2061646472657360008201527f7300000000000000000000000000000000000000000000000000000000000000602082015250565b7f45524332303a207472616e736665722066726f6d20746865207a65726f20616460008201527f6472657373000000000000000000000000000000000000000000000000000000602082015250565b7f45524332303a20617070726f76652066726f6d20746865207a65726f2061646460008201527f7265737300000000000000000000000000000000000000000000000000000000602082015250565b7f416464726573733a2063616c6c20746f206e6f6e2d636f6e7472616374000000600082015250565b7f6469790000000000000000000000000000000000000000000000000000000000600082015250565b7f2d00000000000000000000000000000000000000000000000000000000000000600082015250565b7f5361666545524332303a204552433230206f7065726174696f6e20646964206e60008201527f6f74207375636365656400000000000000000000000000000000000000000000602082015250565b7f6e6f742073746172746564000000000000000000000000000000000000000000600082015250565b7f45524332303a2064656372656173656420616c6c6f77616e63652062656c6f7760008201527f207a65726f000000000000000000000000000000000000000000000000000000602082015250565b7f45524332303a206d696e7420746f20746865207a65726f206164647265737300600082015250565b613b6981613490565b8114613b7457600080fd5b50565b613b80816134a2565b8114613b8b57600080fd5b50565b613b97816134ae565b8114613ba257600080fd5b50565b613bae816134e0565b8114613bb957600080fd5b5056fea264697066735822122019d314e5710c6112946f97c12092ad23547d35d628d1808bb9d3ec62eac7d16a64736f6c63430008030033",
  "linkReferences": {},
  "deployedLinkReferences": {}
}