{
  "_format": "hh-sol-artifact-1",
  "contractName": "ERC20",
  "sourceName": "contracts/token/ERC20.sol",
  "abi": [
    {
      "anonymous": false,
      "inputs": [
        {
          "indexed": true,
          "internalType": "address",
          "name": "owner",
          "type": "address"
        },
        {
          "indexed": true,
          "internalType": "address",
          "name": "spender",
          "type": "address"
        },
        {
          "indexed": false,
          "internalType": "uint256",
          "name": "value",
          "type": "uint256"
        }
      ],
      "name": "Approval",
      "type": "event"
    },
    {
      "anonymous": false,
      "inputs": [
        {
          "indexed": true,
          "internalType": "address",
          "name": "from",
          "type": "address"
        },
        {
          "indexed": true,
          "internalType": "address",
          "name": "to",
          "type": "address"
        },
        {
          "indexed": false,
          "internalType": "uint256",
          "name": "value",
          "type": "uint256"
        }
      ],
      "name": "Transfer",
      "type": "event"
    },
    {
      "inputs": [
        {
          "internalType": "string",
          "name": "name_",
          "type": "string"
        },
        {
          "internalType": "string",
          "name": "symbol_",
          "type": "string"
        }
      ],
      "name": "__ERC20_init",
      "outputs": [],
      "stateMutability": "nonpayable",
      "type": "function"
    },
    {
      "inputs": [
        {
          "internalType": "address",
          "name": "owner",
          "type": "address"
        },
        {
          "internalType": "address",
          "name": "spender",
          "type": "address"
        }
      ],
      "name": "allowance",
      "outputs": [
        {
          "internalType": "uint256",
          "name": "",
          "type": "uint256"
        }
      ],
      "stateMutability": "view",
      "type": "function"
    },
    {
      "inputs": [
        {
          "internalType": "address",
          "name": "spender",
          "type": "address"
        },
        {
          "internalType": "uint256",
          "name": "amount",
          "type": "uint256"
        }
      ],
      "name": "approve",
      "outputs": [
        {
          "internalType": "bool",
          "name": "",
          "type": "bool"
        }
      ],
      "stateMutability": "nonpayable",
      "type": "function"
    },
    {
      "inputs": [
        {
          "internalType": "address",
          "name": "account",
          "type": "address"
        }
      ],
      "name": "balanceOf",
      "outputs": [
        {
          "internalType": "uint256",
          "name": "",
          "type": "uint256"
        }
      ],
      "stateMutability": "view",
      "type": "function"
    },
    {
      "inputs": [],
      "name": "decimals",
      "outputs": [
        {
          "internalType": "uint8",
          "name": "",
          "type": "uint8"
        }
      ],
      "stateMutability": "view",
      "type": "function"
    },
    {
      "inputs": [
        {
          "internalType": "address",
          "name": "spender",
          "type": "address"
        },
        {
          "internalType": "uint256",
          "name": "subtractedValue",
          "type": "uint256"
        }
      ],
      "name": "decreaseAllowance",
      "outputs": [
        {
          "internalType": "bool",
          "name": "",
          "type": "bool"
        }
      ],
      "stateMutability": "nonpayable",
      "type": "function"
    },
    {
      "inputs": [
        {
          "internalType": "address",
          "name": "spender",
          "type": "address"
        },
        {
          "internalType": "uint256",
          "name": "addedValue",
          "type": "uint256"
        }
      ],
      "name": "increaseAllowance",
      "outputs": [
        {
          "internalType": "bool",
          "name": "",
          "type": "bool"
        }
      ],
      "stateMutability": "nonpayable",
      "type": "function"
    },
    {
      "inputs": [],
      "name": "name",
      "outputs": [
        {
          "internalType": "string",
          "name": "",
          "type": "string"
        }
      ],
      "stateMutability": "view",
      "type": "function"
    },
    {
      "inputs": [],
      "name": "symbol",
      "outputs": [
        {
          "internalType": "string",
          "name": "",
          "type": "string"
        }
      ],
      "stateMutability": "view",
      "type": "function"
    },
    {
      "inputs": [],
      "name": "totalSupply",
      "outputs": [
        {
          "internalType": "uint256",
          "name": "",
          "type": "uint256"
        }
      ],
      "stateMutability": "view",
      "type": "function"
    },
    {
      "inputs": [
        {
          "internalType": "address",
          "name": "recipient",
          "type": "address"
        },
        {
          "internalType": "uint256",
          "name": "amount",
          "type": "uint256"
        }
      ],
      "name": "transfer",
      "outputs": [
        {
          "internalType": "bool",
          "name": "",
          "type": "bool"
        }
      ],
      "stateMutability": "nonpayable",
      "type": "function"
    },
    {
      "inputs": [
        {
          "internalType": "address",
          "name": "sender",
          "type": "address"
        },
        {
          "internalType": "address",
          "name": "recipient",
          "type": "address"
        },
        {
          "internalType": "uint256",
          "name": "amount",
          "type": "uint256"
        }
      ],
      "name": "transferFrom",
      "outputs": [
        {
          "internalType": "bool",
          "name": "",
          "type": "bool"
        }
      ],
      "stateMutability": "nonpayable",
      "type": "function"
    }
  ],
  "bytecode": "0x608060405234801561001057600080fd5b506118bb806100206000396000f3fe608060405234801561001057600080fd5b50600436106100b45760003560e01c8063678bd71811610071578063678bd718146101a357806370a08231146101bf57806395d89b41146101ef578063a457c2d71461020d578063a9059cbb1461023d578063dd62ed3e1461026d576100b4565b806306fdde03146100b9578063095ea7b3146100d757806318160ddd1461010757806323b872dd14610125578063313ce567146101555780633950935114610173575b600080fd5b6100c161029d565b6040516100ce91906111f3565b60405180910390f35b6100f160048036038101906100ec9190610fb2565b61032f565b6040516100fe91906111d8565b60405180910390f35b61010f61034d565b60405161011c9190611315565b60405180910390f35b61013f600480360381019061013a9190610f63565b610357565b60405161014c91906111d8565b60405180910390f35b61015d610458565b60405161016a9190611330565b60405180910390f35b61018d60048036038101906101889190610fb2565b610461565b60405161019a91906111d8565b60405180910390f35b6101bd60048036038101906101b89190610fee565b61050d565b005b6101d960048036038101906101d49190610efe565b6105f2565b6040516101e69190611315565b60405180910390f35b6101f761063b565b60405161020491906111f3565b60405180910390f35b61022760048036038101906102229190610fb2565b6106cd565b60405161023491906111d8565b60405180910390f35b61025760048036038101906102529190610fb2565b6107c1565b60405161026491906111d8565b60405180910390f35b61028760048036038101906102829190610f27565b6107df565b6040516102949190611315565b60405180910390f35b6060600480546102ac906114de565b80601f01602080910402602001604051908101604052809291908181526020018280546102d8906114de565b80156103255780601f106102fa57610100808354040283529160200191610325565b820191906000526020600020905b81548152906001019060200180831161030857829003601f168201915b5050505050905090565b600061034361033c610866565b848461086e565b6001905092915050565b6000600354905090565b6000610364848484610a39565b6000600260008673ffffffffffffffffffffffffffffffffffffffff1673ffffffffffffffffffffffffffffffffffffffff16815260200190815260200160002060006103af610866565b73ffffffffffffffffffffffffffffffffffffffff1673ffffffffffffffffffffffffffffffffffffffff1681526020019081526020016000205490508281101561042f576040517f08c379a000000000000000000000000000000000000000000000000000000000815260040161042690611295565b60405180910390fd5b61044c8561043b610866565b85846104479190611413565b61086e565b60019150509392505050565b60006012905090565b600061050361046e610866565b84846002600061047c610866565b73ffffffffffffffffffffffffffffffffffffffff1673ffffffffffffffffffffffffffffffffffffffff16815260200190815260200160002060008873ffffffffffffffffffffffffffffffffffffffff1673ffffffffffffffffffffffffffffffffffffffff168152602001908152602001600020546104fe91906113bd565b61086e565b6001905092915050565b600060019054906101000a900460ff1680610533575060008054906101000a900460ff16155b610572576040517f08c379a000000000000000000000000000000000000000000000000000000000815260040161056990611275565b60405180910390fd5b60008060019054906101000a900460ff1615905080156105c2576001600060016101000a81548160ff02191690831515021790555060016000806101000a81548160ff0219169083151502179055505b6105cc8383610cbb565b80156105ed5760008060016101000a81548160ff0219169083151502179055505b505050565b6000600160008373ffffffffffffffffffffffffffffffffffffffff1673ffffffffffffffffffffffffffffffffffffffff168152602001908152602001600020549050919050565b60606005805461064a906114de565b80601f0160208091040260200160405190810160405280929190818152602001828054610676906114de565b80156106c35780601f10610698576101008083540402835291602001916106c3565b820191906000526020600020905b8154815290600101906020018083116106a657829003601f168201915b5050505050905090565b600080600260006106dc610866565b73ffffffffffffffffffffffffffffffffffffffff1673ffffffffffffffffffffffffffffffffffffffff16815260200190815260200160002060008573ffffffffffffffffffffffffffffffffffffffff1673ffffffffffffffffffffffffffffffffffffffff16815260200190815260200160002054905082811015610799576040517f08c379a0000000000000000000000000000000000000000000000000000000008152600401610790906112f5565b60405180910390fd5b6107b66107a4610866565b8585846107b19190611413565b61086e565b600191505092915050565b60006107d56107ce610866565b8484610a39565b6001905092915050565b6000600260008473ffffffffffffffffffffffffffffffffffffffff1673ffffffffffffffffffffffffffffffffffffffff16815260200190815260200160002060008373ffffffffffffffffffffffffffffffffffffffff1673ffffffffffffffffffffffffffffffffffffffff16815260200190815260200160002054905092915050565b600033905090565b600073ffffffffffffffffffffffffffffffffffffffff168373ffffffffffffffffffffffffffffffffffffffff1614156108de576040517f08c379a00000000000000000000000000000000000000000000000000000000081526004016108d5906112d5565b60405180910390fd5b600073ffffffffffffffffffffffffffffffffffffffff168273ffffffffffffffffffffffffffffffffffffffff16141561094e576040517f08c379a000000000000000000000000000000000000000000000000000000000815260040161094590611235565b60405180910390fd5b80600260008573ffffffffffffffffffffffffffffffffffffffff1673ffffffffffffffffffffffffffffffffffffffff16815260200190815260200160002060008473ffffffffffffffffffffffffffffffffffffffff1673ffffffffffffffffffffffffffffffffffffffff168152602001908152602001600020819055508173ffffffffffffffffffffffffffffffffffffffff168373ffffffffffffffffffffffffffffffffffffffff167f8c5be1e5ebec7d5bd14f71427d1e84f3dd0314c0f7b2291e5b200ac8c7c3b92583604051610a2c9190611315565b60405180910390a3505050565b600073ffffffffffffffffffffffffffffffffffffffff168373ffffffffffffffffffffffffffffffffffffffff161415610aa9576040517f08c379a0000000000000000000000000000000000000000000000000000000008152600401610aa0906112b5565b60405180910390fd5b600073ffffffffffffffffffffffffffffffffffffffff168273ffffffffffffffffffffffffffffffffffffffff161415610b19576040517f08c379a0000000000000000000000000000000000000000000000000000000008152600401610b1090611215565b60405180910390fd5b610b24838383610dc4565b6000600160008573ffffffffffffffffffffffffffffffffffffffff1673ffffffffffffffffffffffffffffffffffffffff16815260200190815260200160002054905081811015610bab576040517f08c379a0000000000000000000000000000000000000000000000000000000008152600401610ba290611255565b60405180910390fd5b8181610bb79190611413565b600160008673ffffffffffffffffffffffffffffffffffffffff1673ffffffffffffffffffffffffffffffffffffffff1681526020019081526020016000208190555081600160008573ffffffffffffffffffffffffffffffffffffffff1673ffffffffffffffffffffffffffffffffffffffff1681526020019081526020016000206000828254610c4991906113bd565b925050819055508273ffffffffffffffffffffffffffffffffffffffff168473ffffffffffffffffffffffffffffffffffffffff167fddf252ad1be2c89b69c2b068fc378daa952ba7f163c4a11628f55a4df523b3ef84604051610cad9190611315565b60405180910390a350505050565b600060019054906101000a900460ff1680610ce1575060008054906101000a900460ff16155b610d20576040517f08c379a0000000000000000000000000000000000000000000000000000000008152600401610d1790611275565b60405180910390fd5b60008060019054906101000a900460ff161590508015610d70576001600060016101000a81548160ff02191690831515021790555060016000806101000a81548160ff0219169083151502179055505b8260049080519060200190610d86929190610dc9565b508160059080519060200190610d9d929190610dc9565b508015610dbf5760008060016101000a81548160ff0219169083151502179055505b505050565b505050565b828054610dd5906114de565b90600052602060002090601f016020900481019282610df75760008555610e3e565b82601f10610e1057805160ff1916838001178555610e3e565b82800160010185558215610e3e579182015b82811115610e3d578251825591602001919060010190610e22565b5b509050610e4b9190610e4f565b5090565b5b80821115610e68576000816000905550600101610e50565b5090565b6000610e7f610e7a84611370565b61134b565b905082815260208101848484011115610e9757600080fd5b610ea284828561149c565b509392505050565b600081359050610eb981611857565b92915050565b600082601f830112610ed057600080fd5b8135610ee0848260208601610e6c565b91505092915050565b600081359050610ef88161186e565b92915050565b600060208284031215610f1057600080fd5b6000610f1e84828501610eaa565b91505092915050565b60008060408385031215610f3a57600080fd5b6000610f4885828601610eaa565b9250506020610f5985828601610eaa565b9150509250929050565b600080600060608486031215610f7857600080fd5b6000610f8686828701610eaa565b9350506020610f9786828701610eaa565b9250506040610fa886828701610ee9565b9150509250925092565b60008060408385031215610fc557600080fd5b6000610fd385828601610eaa565b9250506020610fe485828601610ee9565b9150509250929050565b6000806040838503121561100157600080fd5b600083013567ffffffffffffffff81111561101b57600080fd5b61102785828601610ebf565b925050602083013567ffffffffffffffff81111561104457600080fd5b61105085828601610ebf565b9150509250929050565b61106381611459565b82525050565b6000611074826113a1565b61107e81856113ac565b935061108e8185602086016114ab565b611097816115ce565b840191505092915050565b60006110af6023836113ac565b91506110ba826115df565b604082019050919050565b60006110d26022836113ac565b91506110dd8261162e565b604082019050919050565b60006110f56026836113ac565b91506111008261167d565b604082019050919050565b6000611118602e836113ac565b9150611123826116cc565b604082019050919050565b600061113b6028836113ac565b91506111468261171b565b604082019050919050565b600061115e6025836113ac565b91506111698261176a565b604082019050919050565b60006111816024836113ac565b915061118c826117b9565b604082019050919050565b60006111a46025836113ac565b91506111af82611808565b604082019050919050565b6111c381611485565b82525050565b6111d28161148f565b82525050565b60006020820190506111ed600083018461105a565b92915050565b6000602082019050818103600083015261120d8184611069565b905092915050565b6000602082019050818103600083015261122e816110a2565b9050919050565b6000602082019050818103600083015261124e816110c5565b9050919050565b6000602082019050818103600083015261126e816110e8565b9050919050565b6000602082019050818103600083015261128e8161110b565b9050919050565b600060208201905081810360008301526112ae8161112e565b9050919050565b600060208201905081810360008301526112ce81611151565b9050919050565b600060208201905081810360008301526112ee81611174565b9050919050565b6000602082019050818103600083015261130e81611197565b9050919050565b600060208201905061132a60008301846111ba565b92915050565b600060208201905061134560008301846111c9565b92915050565b6000611355611366565b90506113618282611510565b919050565b6000604051905090565b600067ffffffffffffffff82111561138b5761138a61159f565b5b611394826115ce565b9050602081019050919050565b600081519050919050565b600082825260208201905092915050565b60006113c882611485565b91506113d383611485565b9250827fffffffffffffffffffffffffffffffffffffffffffffffffffffffffffffffff0382111561140857611407611541565b5b828201905092915050565b600061141e82611485565b915061142983611485565b92508282101561143c5761143b611541565b5b828203905092915050565b600061145282611465565b9050919050565b60008115159050919050565b600073ffffffffffffffffffffffffffffffffffffffff82169050919050565b6000819050919050565b600060ff82169050919050565b82818337600083830152505050565b60005b838110156114c95780820151818401526020810190506114ae565b838111156114d8576000848401525b50505050565b600060028204905060018216806114f657607f821691505b6020821081141561150a57611509611570565b5b50919050565b611519826115ce565b810181811067ffffffffffffffff821117156115385761153761159f565b5b80604052505050565b7f4e487b7100000000000000000000000000000000000000000000000000000000600052601160045260246000fd5b7f4e487b7100000000000000000000000000000000000000000000000000000000600052602260045260246000fd5b7f4e487b7100000000000000000000000000000000000000000000000000000000600052604160045260246000fd5b6000601f19601f8301169050919050565b7f45524332303a207472616e7366657220746f20746865207a65726f206164647260008201527f6573730000000000000000000000000000000000000000000000000000000000602082015250565b7f45524332303a20617070726f766520746f20746865207a65726f20616464726560008201527f7373000000000000000000000000000000000000000000000000000000000000602082015250565b7f45524332303a207472616e7366657220616d6f756e742065786365656473206260008201527f616c616e63650000000000000000000000000000000000000000000000000000602082015250565b7f496e697469616c697a61626c653a20636f6e747261637420697320616c72656160008201527f647920696e697469616c697a6564000000000000000000000000000000000000602082015250565b7f45524332303a207472616e7366657220616d6f756e742065786365656473206160008201527f6c6c6f77616e6365000000000000000000000000000000000000000000000000602082015250565b7f45524332303a207472616e736665722066726f6d20746865207a65726f20616460008201527f6472657373000000000000000000000000000000000000000000000000000000602082015250565b7f45524332303a20617070726f76652066726f6d20746865207a65726f2061646460008201527f7265737300000000000000000000000000000000000000000000000000000000602082015250565b7f45524332303a2064656372656173656420616c6c6f77616e63652062656c6f7760008201527f207a65726f000000000000000000000000000000000000000000000000000000602082015250565b61186081611447565b811461186b57600080fd5b50565b61187781611485565b811461188257600080fd5b5056fea2646970667358221220384b2d4635936a9a4f6c3f4e26bc9e9d77b85ba4b1a4ed178c9dd3e05a31c83664736f6c63430008030033",
  "linkReferences": {},
  "deployedLinkReferences": {}
}